:020000040800F2
:1000000078060020290200083102000833020008A7
:10001000350200083702000839020008000000001D
:100020000000000000000000000000003B0200088B
:100030003D020008000000003F02000841020008E5
:10004000430200084302000843020008430200087C
:10005000430200084302000843020008430200086C
:10006000430200084302000843020008430200085C
:10007000430200084302000843020008430200084C
:10008000430200084302000843020008430200083C
:10009000430200084302000843020008430200082C
:1000A000430200084302000843020008430200081C
:1000B000430200084302000843020008430200080C
:1000C00043020008430200084302000843020008FC
:1000D00043020008430200084302000843020008EC
:1000E00043020008430200084302000843020008DC
:1000F00043020008430200084302000843020008CC
:1001000043020008430200084302000843020008BB
:1001100043020008430200084302000843020008AB
:10012000430200084302000843020008430200089B
:10013000430200084302000843020008430200088B
:10014000430200084302000843020008430200087B
:10015000430200084302000843020008430200086B
:10016000430200084302000843020008430200085B
:10017000430200084302000843020008430200084B
:10018000430200084302000800F002F800F03CF8C7
:100190000AA090E8000C82448344AAF10107DA45E2
:1001A00001D100F031F8AFF2090EBAE80F0013F0F8
:1001B000010F18BFFB1A43F0010318477C0300002E
:1001C0009C030000103A24BF78C878C1FAD85207BF
:1001D00024BF30C830C144BF04680C6070470000C1
:1001E0000023002400250026103A28BF78C1FBD840
:1001F000520728BF30C148BF0B6070471FB500F0E1
:1002000096F91FBD10B510BD00F05BF91146FFF760
:10021000F5FF00F029F800F079F903B4FFF7F2FFD9
:1002200003BC00F07DF900000948804709480047F9
:10023000FEE7FEE7FEE7FEE7FEE7FEE7FEE7FEE796
:10024000FEE7FEE704480549054A064B70470000F3
:100250008B03000889010008780000207806002040
:10026000780200207802002000F008F803E04FF444
:10027000004001490860FAE7140C024008200A49CE
:1002800008604FF0AA40094908604FF07F400749D5
:10029000083108604FF02A40091D0860002003491A
:1002A000091D08607047000030380240000C024011
:1002B0000CB50020019000907548006840F4803033
:1002C0007349086000BF7248006800F40030009075
:1002D0000198401C0190009818B90198B0F5A04F02
:1002E000F1D16B48006810F4003F02D0012000906B
:1002F00001E0002000900098012845D1644840307A
:10030000006840F0805062494031086061480068F0
:1003100040F440405F4908605D48083000685C492F
:10032000083108600846006840F40040086008464C
:10033000006840F4A05008605748091F0860081F73
:10034000006840F08070091F086000BF50480068D6
:1003500010F0007FFAD040F20570504908604C4818
:100360000830006820F00300494908310860084659
:10037000006840F00200086000BF4548083000688F
:1003800000F00C000828F8D10CBD10B544480068F6
:1003900040F47000424908603D48006840F00100A8
:1003A0003B49086000203A49083108603848006835
:1003B0003C490840364908603B48091D0860081F51
:1003C000006820F48020091F0860002030490C31AB
:1003D0000860FFF76DFF4FF0006031498039086019
:1003E00010BD70B500200022022300240221284DF8
:1003F00008352D6805F00C0020B1042806D0082827
:1004000034D107E0294D2A4E356033E0294D284E7E
:1004100035602FE01E4D2D1D2D68C5F380541C4DF9
:100420002D1D2D6805F03F0154B1224DB5FBF1F5AE
:10043000174E361D3668C6F3881605FB06F209E02E
:100440001A4DB5FBF1F5124E361D3668C6F3881607
:1004500005FB06F20E4D2D1D2D68C5F301456D1CE3
:100460006B00B2FBF3F5124E356003E00F4D104EFA
:10047000356000BF00BF064D08352D68C5F3031574
:100480000D4E705D0A4D2D68C540094E356070BD3A
:10049000003802400070004019544007003C024000
:1004A00088ED00E0FFFFF6FE103000240024F40089
:1004B0000000002000127A000400002070477047FE
:1004C0007047754600F028F8AE4605006946534669
:1004D00020F00700854618B020B5FFF7B3FEBDE851
:1004E00020404FF000064FF000074FF000084FF09B
:1004F000000B21F00701AC46ACE8C009ACE8C0092C
:10050000ACE8C009ACE8C0098D4670470446AFF3BB
:1005100000802046FFF781FE00487047140000204D
:1005200001491820ABBEFEE72600020070474FF0DD
:100530004070E1EE100A70475805000800000020E6
:1005400014000000C40100086C050008140000201D
:1005500064060000E0010008007A030A00000000C1
:0C05600000000000010203040607080967
:040000050800018965
:00000001FF
